:020000020000FC
:0200000020C01E
:0200340075C095
:1000400007C32098289A3A9A429A5098589A5198F9
:10005000599A52985A9A53985B9A579A5F9A569A15
:100060005E9A559A5D9A549A5C9A239A2B98249A90
:100070002C98259A2D9804E005BD03E806BD04E000
:100080000093810005E816E2009385001093840038
:1000900050E467E079E380E8992700E0A4EAB2E061
:1000A0000C930024A5EAB2E00C92A6EAB2E00C920E
:1000B000F1E0E0E000240192E23DE9F7F1E0E2ED59
:1000C00000240192E43AE9F724D3D1E0C9E300E83F
:1000D000088300E80FBF01E000936E0000E000938A
:1000E0006F000FEF000018E200001A95E9F70A957B
:1000F000C9F703B000FA2EF000E000936F0061D161
:10010000F0CF00916F0000FB66F3A4EAB2E00C911F
:10011000B1E0A0E0A70F0C9301E000936F00E1CFE6
:10012000FF93EF93BF93AF930F922F923F924F9213
:100130005F926F927F928F920F931F932F933F93B3
:1001400000903F000F927894329AE0E0F1E0222490
:1001500033243327772400E8402E02ED502E2081EF
:1001600008E0602EF89427FD02C03FD001C05CD0AB
:10017000220F2394022D083311F433942224469441
:1001800033276A9481F778943196739400E8402E6F
:100190005A9429F7E0E0F1E0A2EDB1E02D9121932E
:1001A000E23DE1F7F130D1F7B1E0A0E0A70F0C910B
:1001B000A4EAB2E00C9305E816E2009385001093E0
:1001C00084000F9000923F003F912F911F910F915B
:1001D0008F907F906F905F904F903F902F900F90F7
:1001E000AF91BF91EF91FF9118954CD03ED06CD05C
:1001F00057D0B3D0CCD096D07CD0333049F4A2EDD8
:10020000B1E0A70D0024B01D0C9104290C930895B2
:10021000A2EDB1E0A70D0024B01D0C91842C1FEFBE
:10022000812608210C9308952DD01FD04DD038D0B1
:1002300094D0ADD077D05DD0323058F034304AF41D
:10024000A2EDB1E0A70D0024B01D0C9104290C9380
:100250000895A2EDB1E0A70D0024B01D0C91842CEF
:100260001FEF812608210C930895032D01500AF4F5
:100270000895AE2FBF2F17970C91042109F408950C
:1002800033950895032D03950E3109F40895AE2F8B
:10029000BF2F17960C91042109F408953395089502
:1002A000022D01500AF40895AE2FBF2F042D000F28
:1002B00029F411971C91117029F408951C911023B1
:1002C00009F4089533950895022D0395083309F430
:1002D0000895AE2FBF2F042D069529F411961C9179
:1002E000107829F408951C91102309F4089533958A
:1002F0000895022D132D01500AF4089511500AF4A7
:100300000895AE2FBF2F1797042D000F29F41197D2
:100310001C911170B9F608951C91102309F40895E9
:1003200033950895022D132D13951E3109F4089568
:100330000395083309F40895AE2FBF2F1796042DA7
:10034000069529F411961C91107829F408951C91B2
:10035000102309F4089533950895022D132D039564
:10036000083309F4089511500AF40895AE2FBF2FF1
:100370001797042D069529F411961C91107829F4ED
:1003800008951C91102309F4089533950895022DC2
:10039000132D13951E3109F4089501500AF40895A0
:1003A000AE2FBF2F1796042D000F29F411971C9123
:1003B000117029F408951C91102309F408953395C0
:1003C00008955E9A5D9A5C9A9F775F980000489BBB
:1003D0000000499B17D14A9B05D14B9BF3D05F9AF4
:1003E0005E980000489B0000499B00004A9B1CD07F
:1003F0004B9B00005E9A5D980000489B0000499B63
:10040000A2D04A9BC7D04B9B78D05D9A5C980000E5
:10041000489B0000499B00004A9B3BD04B9B02D16C
:100420005C9A97FF9F7B0895906896FF01C008959E
:100430009064A6EAB2E02C912D30B0F022272C93E4
:10044000072F0B55A4EAB2E01C91B1E0A0E0A70F82
:100450001C93702FD1979A971C91012F082B0C9306
:10046000A4EAB2E01C93089523952C93072F095F0B
:10047000A4EAB2E01C91B1E0A0E0A70F1C93702F9A
:1004800017961C91012F082B0C93A4EAB2E01C9341
:100490000895906896FF01C008959064A6EAB2E0BE
:1004A0002C912A95B2F42DE02C93072F055AA4EA3B
:1004B000B2E01C91B1E0A0E0A70F1C93702FD19681
:1004C0009A961C91012F082B0C93A4EAB2E01C937E
:1004D00008952C93072F0750A4EAB2E01C91B1E0D5
:1004E000A0E0A70F1C93702F17971C91012F082BCA
:1004F0000C93A4EAB2E01C930895906896FF01C0A3
:1005000008959064A5EAB2E02C912395A4EAB2E0A4
:100510000C91B1E0A0E0A70F869579F40D93739547
:10052000283218F02227755015970C91A4EAB2E0F2
:100530000C93B1E0A0E0A70F80E8082B0C93A5EA8C
:10054000B2E02C930895906896FF01C008959064DE
:10055000A5EAB2E02C912A95A4EAB2E00C91B1E0B0
:10056000A0E0A70F880F81F40C9311977A952030A3
:100570001AF427E27B5F15960C91A4EAB2E00C9383
:10058000B1E0A0E0A70F81E0082B0C93A5EAB2E050
:100590002C930895906896FF01C008959064A4EA92
:1005A000B2E02C91022F082341F0082F1FEF012702
:1005B0002023A4EAB2E02C930895282BA4EAB2E009
:1005C0002C9308953CD0EF93FF93A0E0B1E0E8E2D4
:1005D000F7E005910D93A23DE1F7B130D1F7FF911E
:1005E000EF9108952CD0EF93FF93A0E0B1E0EAEFF4
:1005F000F7E005910D93A23DE1F7B130D1F7FF91FE
:10060000EF9108951CD0EF93FF93A0E0B1E0EEE9E5
:10061000F9E005910D93A23DE1F7B130D1F7FF91DB
:10062000EF910895B1E0A0E000240D92A23DE9F71A
:10063000B130D9F704D0A4EAB2E00C920895B1E049
:10064000A2ED00240D92A43AE9F7B230D9F708954B
:100650004F933F932F931F930F933F922F920090AE
:100660003F000F920DD003E806BD0F9000923F00AF
:100670002F903F900F911F912F913F914F9118957F
:100680002C9A05E0302E222405E01991239423149E
:1006900011F42224229628E02B9817FD2B9A2D98EE
:1006A0002D9A110F2A95C1F70A9579F7AA96222457
:1006B00005E019912394231411F42224229628E0B2
:1006C0002B9817FD2B9A2D982D9A110F2A95C1F76B
:1006D0000A9579F7E197152F28E02B9817FD2B9AAB
:1006E0002D982D9A110F2A95C1F72C982C9A02E378
:1006F00000000A95E9F72C98569509F450E46A959C
:1007000009F401D0089531E049E3D32FC42F67E005
:100710000895A0E0B1E0ECECF8E005910D93A23D66
:10072000E1F7B130D1F708950000000000000000AB
:1007300000000000000000000000000000000000B9
:1007400000000000000000000000000000000000A9
:100750000000000000000000000000000000000099
:10076000000000E380000000000000000000000026
:1007700002142000000000021420000000000214F7
:10078000200000000000E3800000000000000000E6
:1007900000000000E38000000000021420000000C0
:1007A00000021420000000000214200000000000DD
:1007B00000000000000000E38000000000000000D6
:1007C0000000000000000000000000000000000029
:1007D0000000000000000000000000000000000019
:1007E0000000000000000000000000000000000009
:1007F00000000000000000000000000000000000F9
:1008000000000000000000000000000000000000E8
:1008100000000000000000000000000000000000D8
:1008200000000000000000000000000000000000C8
:1008300000000000000000000000000000000000B8
:100840000000000000000000000000C000000000E8
:100850000002200000000004041000000000050D4C
:10086000100C00000000C4100C00003000C220007A
:1008700000003000C0C000000000050000000000C3
:100880000004000000000000000000000000000064
:100890000000000000000000000000000000000058
:1008A0000000000000000000000000000000000048
:1008B0000000000000000000000000000000000038
:1008C0000000000000000000000000000000000028
:1008D0000000000000000000000000000000000018
:1008E0000000000000000000000000000000000008
:1008F00000000000000000000000000000000000F8
:100900000000000000000000000000003C2FBE01BD
:100910007C0000042202014400001CE202074400A3
:1009200000042202014400003DEF820F7C00000021
:10093000000000000000000000000000000001F5C1
:10094000517C0000000015514400000000755F74E8
:100950000000000015510400000001F7DF7C0000DA
:100960000000000000000000000000000000000087
:100970000000000000000000000000000000000077
:100980000000000000000000000000000000000067
:100990000000000000000000000000000000000057
:1009A0000000000000000000000000000000000047
:1009B0000000000000000000000000000000000037
:1009C0000000000000000000000000000000000027
:1009D0000000000000000000000000000000000017
:1009E0000000000000000000000000000000000007
:1009F00000000000000000000000000000000000F7
:100A00000000000000000000000E38E38E0000002F
:100A100008208208000000041041040000000000CB
:100A20000000000000000000000000000E38E38E0F
:100A300000000008208208000000041041040000AB
:100A40000000000000000000000000000000000E98
:100A500038E38E00000008208208000000041041E6
:100A60000400000000000000000000000000000082
:00000001FF
